{
  "address": "0x30bD0B2000ba667c50347ff9920f9D3F9CE821E9",
  "abi": [
    {
      "inputs": [
        {
          "internalType": "uint256",
          "name": "_complimentary",
          "type": "uint256"
        },
        {
          "internalType": "uint256",
          "name": "_cap",
          "type": "uint256"
        }
      ],
      "stateMutability": "nonpayable",
      "type": "constructor"
    },
    {
      "anonymous": false,
      "inputs": [
        {
          "indexed": true,
          "internalType": "address",
          "name": "owner",
          "type": "address"
        },
        {
          "indexed": true,
          "internalType": "address",
          "name": "approved",
          "type": "address"
        },
        {
          "indexed": true,
          "internalType": "uint256",
          "name": "tokenId",
          "type": "uint256"
        }
      ],
      "name": "Approval",
      "type": "event"
    },
    {
      "anonymous": false,
      "inputs": [
        {
          "indexed": true,
          "internalType": "address",
          "name": "owner",
          "type": "address"
        },
        {
          "indexed": true,
          "internalType": "address",
          "name": "operator",
          "type": "address"
        },
        {
          "indexed": false,
          "internalType": "bool",
          "name": "approved",
          "type": "bool"
        }
      ],
      "name": "ApprovalForAll",
      "type": "event"
    },
    {
      "anonymous": false,
      "inputs": [
        {
          "indexed": true,
          "internalType": "address",
          "name": "previousOwner",
          "type": "address"
        },
        {
          "indexed": true,
          "internalType": "address",
          "name": "newOwner",
          "type": "address"
        }
      ],
      "name": "OwnershipTransferred",
      "type": "event"
    },
    {
      "anonymous": false,
      "inputs": [
        {
          "indexed": false,
          "internalType": "address",
          "name": "account",
          "type": "address"
        }
      ],
      "name": "Paused",
      "type": "event"
    },
    {
      "anonymous": false,
      "inputs": [
        {
          "indexed": true,
          "internalType": "address",
          "name": "sender",
          "type": "address"
        },
        {
          "indexed": true,
          "internalType": "address",
          "name": "receiver",
          "type": "address"
        },
        {
          "indexed": false,
          "internalType": "uint256",
          "name": "senderTokenId",
          "type": "uint256"
        },
        {
          "indexed": false,
          "internalType": "uint256",
          "name": "receiverTokenId",
          "type": "uint256"
        }
      ],
      "name": "SecretSealed",
      "type": "event"
    },
    {
      "anonymous": false,
      "inputs": [
        {
          "indexed": true,
          "internalType": "address",
          "name": "from",
          "type": "address"
        },
        {
          "indexed": true,
          "internalType": "address",
          "name": "to",
          "type": "address"
        },
        {
          "indexed": true,
          "internalType": "uint256",
          "name": "tokenId",
          "type": "uint256"
        }
      ],
      "name": "Transfer",
      "type": "event"
    },
    {
      "anonymous": false,
      "inputs": [
        {
          "indexed": false,
          "internalType": "address",
          "name": "account",
          "type": "address"
        }
      ],
      "name": "Unpaused",
      "type": "event"
    },
    {
      "inputs": [],
      "name": "COMPLIMENTARY_SOMEONES",
      "outputs": [
        {
          "internalType": "uint256",
          "name": "",
          "type": "uint256"
        }
      ],
      "stateMutability": "view",
      "type": "function"
    },
    {
      "inputs": [],
      "name": "DISCOUNTED_PERIOD",
      "outputs": [
        {
          "internalType": "uint256",
          "name": "",
          "type": "uint256"
        }
      ],
      "stateMutability": "view",
      "type": "function"
    },
    {
      "inputs": [],
      "name": "DISCOUNTED_PRICE",
      "outputs": [
        {
          "internalType": "uint256",
          "name": "",
          "type": "uint256"
        }
      ],
      "stateMutability": "view",
      "type": "function"
    },
    {
      "inputs": [],
      "name": "PRICE",
      "outputs": [
        {
          "internalType": "uint256",
          "name": "",
          "type": "uint256"
        }
      ],
      "stateMutability": "view",
      "type": "function"
    },
    {
      "inputs": [
        {
          "internalType": "address",
          "name": "to",
          "type": "address"
        },
        {
          "internalType": "uint256",
          "name": "tokenId",
          "type": "uint256"
        }
      ],
      "name": "approve",
      "outputs": [],
      "stateMutability": "nonpayable",
      "type": "function"
    },
    {
      "inputs": [
        {
          "internalType": "address",
          "name": "owner",
          "type": "address"
        }
      ],
      "name": "balanceOf",
      "outputs": [
        {
          "internalType": "uint256",
          "name": "",
          "type": "uint256"
        }
      ],
      "stateMutability": "view",
      "type": "function"
    },
    {
      "inputs": [],
      "name": "cap",
      "outputs": [
        {
          "internalType": "uint256",
          "name": "",
          "type": "uint256"
        }
      ],
      "stateMutability": "view",
      "type": "function"
    },
    {
      "inputs": [],
      "name": "complimentaryPeriodEndedOn",
      "outputs": [
        {
          "internalType": "uint256",
          "name": "",
          "type": "uint256"
        }
      ],
      "stateMutability": "view",
      "type": "function"
    },
    {
      "inputs": [
        {
          "internalType": "uint256",
          "name": "tokenId",
          "type": "uint256"
        }
      ],
      "name": "getApproved",
      "outputs": [
        {
          "internalType": "address",
          "name": "",
          "type": "address"
        }
      ],
      "stateMutability": "view",
      "type": "function"
    },
    {
      "inputs": [
        {
          "internalType": "address",
          "name": "owner",
          "type": "address"
        },
        {
          "internalType": "address",
          "name": "operator",
          "type": "address"
        }
      ],
      "name": "isApprovedForAll",
      "outputs": [
        {
          "internalType": "bool",
          "name": "",
          "type": "bool"
        }
      ],
      "stateMutability": "view",
      "type": "function"
    },
    {
      "inputs": [],
      "name": "name",
      "outputs": [
        {
          "internalType": "string",
          "name": "",
          "type": "string"
        }
      ],
      "stateMutability": "view",
      "type": "function"
    },
    {
      "inputs": [],
      "name": "owner",
      "outputs": [
        {
          "internalType": "address",
          "name": "",
          "type": "address"
        }
      ],
      "stateMutability": "view",
      "type": "function"
    },
    {
      "inputs": [
        {
          "internalType": "uint256",
          "name": "tokenId",
          "type": "uint256"
        }
      ],
      "name": "ownerOf",
      "outputs": [
        {
          "internalType": "address",
          "name": "",
          "type": "address"
        }
      ],
      "stateMutability": "view",
      "type": "function"
    },
    {
      "inputs": [],
      "name": "paused",
      "outputs": [
        {
          "internalType": "bool",
          "name": "",
          "type": "bool"
        }
      ],
      "stateMutability": "view",
      "type": "function"
    },
    {
      "inputs": [],
      "name": "renounceOwnership",
      "outputs": [],
      "stateMutability": "nonpayable",
      "type": "function"
    },
    {
      "inputs": [
        {
          "internalType": "address",
          "name": "from",
          "type": "address"
        },
        {
          "internalType": "address",
          "name": "to",
          "type": "address"
        },
        {
          "internalType": "uint256",
          "name": "tokenId",
          "type": "uint256"
        }
      ],
      "name": "safeTransferFrom",
      "outputs": [],
      "stateMutability": "nonpayable",
      "type": "function"
    },
    {
      "inputs": [
        {
          "internalType": "address",
          "name": "from",
          "type": "address"
        },
        {
          "internalType": "address",
          "name": "to",
          "type": "address"
        },
        {
          "internalType": "uint256",
          "name": "tokenId",
          "type": "uint256"
        },
        {
          "internalType": "bytes",
          "name": "_data",
          "type": "bytes"
        }
      ],
      "name": "safeTransferFrom",
      "outputs": [],
      "stateMutability": "nonpayable",
      "type": "function"
    },
    {
      "inputs": [],
      "name": "secrets",
      "outputs": [
        {
          "internalType": "uint256",
          "name": "_value",
          "type": "uint256"
        }
      ],
      "stateMutability": "view",
      "type": "function"
    },
    {
      "inputs": [
        {
          "internalType": "address",
          "name": "_receiver",
          "type": "address"
        },
        {
          "internalType": "string",
          "name": "_ipfsHash",
          "type": "string"
        }
      ],
      "name": "sendSecret",
      "outputs": [],
      "stateMutability": "payable",
      "type": "function"
    },
    {
      "inputs": [
        {
          "internalType": "address",
          "name": "operator",
          "type": "address"
        },
        {
          "internalType": "bool",
          "name": "approved",
          "type": "bool"
        }
      ],
      "name": "setApprovalForAll",
      "outputs": [],
      "stateMutability": "nonpayable",
      "type": "function"
    },
    {
      "inputs": [
        {
          "internalType": "bytes4",
          "name": "interfaceId",
          "type": "bytes4"
        }
      ],
      "name": "supportsInterface",
      "outputs": [
        {
          "internalType": "bool",
          "name": "",
          "type": "bool"
        }
      ],
      "stateMutability": "view",
      "type": "function"
    },
    {
      "inputs": [],
      "name": "symbol",
      "outputs": [
        {
          "internalType": "string",
          "name": "",
          "type": "string"
        }
      ],
      "stateMutability": "view",
      "type": "function"
    },
    {
      "inputs": [],
      "name": "togglePauseState",
      "outputs": [],
      "stateMutability": "nonpayable",
      "type": "function"
    },
    {
      "inputs": [
        {
          "internalType": "uint256",
          "name": "tokenId",
          "type": "uint256"
        }
      ],
      "name": "tokenURI",
      "outputs": [
        {
          "internalType": "string",
          "name": "",
          "type": "string"
        }
      ],
      "stateMutability": "view",
      "type": "function"
    },
    {
      "inputs": [
        {
          "internalType": "address",
          "name": "from",
          "type": "address"
        },
        {
          "internalType": "address",
          "name": "to",
          "type": "address"
        },
        {
          "internalType": "uint256",
          "name": "tokenId",
          "type": "uint256"
        }
      ],
      "name": "transferFrom",
      "outputs": [],
      "stateMutability": "nonpayable",
      "type": "function"
    },
    {
      "inputs": [
        {
          "internalType": "address",
          "name": "newOwner",
          "type": "address"
        }
      ],
      "name": "transferOwnership",
      "outputs": [],
      "stateMutability": "nonpayable",
      "type": "function"
    },
    {
      "inputs": [],
      "name": "withdraw",
      "outputs": [],
      "stateMutability": "nonpayable",
      "type": "function"
    }
  ],
  "transactionHash": "0xb0cb7f69617b6db8d00e2e357f6b10eafcc360371bc6faf15504501f5d4fe4af",
  "args": [
    "100",
    "500"
  ],
  "numDeployments": 1,
  "solcInputHash": "d0c63c3ed4abf4cf82681bd1804df9a9",
  "bytecode": "0x60a0604052620186a06008553480156200001857600080fd5b5060405162002fe338038062002fe38339810160408190526200003b91620001d7565b604080518082018252600e81526d53656372657420536f6d656f6e6560901b60208083019182528351808501909452600384526253534f60e81b9084015281519192916200008c9160009162000131565b508051620000a290600190602084019062000131565b505050620000bf620000b9620000db60201b60201c565b620000df565b6007805460ff60a01b1916905560809190915260085562000239565b3390565b600780546001600160a01b038381166001600160a01b0319831681179093556040519116919082907f8be0079c531659141344cd1fd0a4f28419497f9722a3daafe3b4186f6b6457e090600090a35050565b8280546200013f90620001fc565b90600052602060002090601f016020900481019282620001635760008555620001ae565b82601f106200017e57805160ff1916838001178555620001ae565b82800160010185558215620001ae579182015b82811115620001ae57825182559160200191906001019062000191565b50620001bc929150620001c0565b5090565b5b80821115620001bc5760008155600101620001c1565b60008060408385031215620001eb57600080fd5b505080516020909101519092909150565b600181811c908216806200021157607f821691505b602082108114156200023357634e487b7160e01b600052602260045260246000fd5b50919050565b608051612d80620002636000396000818161029501528181610c3f0152610ed60152612d806000f3fe6080604052600436106101ab5760003560e01c80636352211e116100ec578063a22cb4651161008a578063cd7480fa11610064578063cd7480fa146104b6578063d736c507146104cd578063e985e9c5146104e3578063f2fde38b1461053957600080fd5b8063a22cb46514610456578063b88d4fde14610476578063c87b56dd1461049657600080fd5b80638cc6d162116100c65780638cc6d162146103df5780638d859f3e146103fa5780638da5cb5b1461041657806395d89b411461044157600080fd5b80636352211e1461038a57806370a08231146103aa578063715018a6146103ca57600080fd5b806323b872dd1161015957806342842e0e1161013357806342842e0e1461031057806350827baa146103305780635634fb68146103435780635c975abb1461035a57600080fd5b806323b872dd146102c5578063355274ea146102e55780633ccfd60b146102fb57600080fd5b8063081812fc1161018a578063081812fc1461021e578063095ea7b314610263578063170d91ab1461028357600080fd5b80628803d3146101b057806301ffc9a7146101c757806306fdde03146101fc575b600080fd5b3480156101bc57600080fd5b506101c5610559565b005b3480156101d357600080fd5b506101e76101e23660046127cb565b610614565b60405190151581526020015b60405180910390f35b34801561020857600080fd5b506102116106f9565b6040516101f3919061285e565b34801561022a57600080fd5b5061023e610239366004612871565b61078b565b60405173ffffffffffffffffffffffffffffffffffffffff90911681526020016101f3565b34801561026f57600080fd5b506101c561027e3660046128b3565b610865565b34801561028f57600080fd5b506102b77f000000000000000000000000000000000000000000000000000000000000000081565b6040519081526020016101f3565b3480156102d157600080fd5b506101c56102e03660046128dd565b6109f2565b3480156102f157600080fd5b506102b760085481565b34801561030757600080fd5b506101c5610a93565b34801561031c57600080fd5b506101c561032b3660046128dd565b610b1e565b6101c561033e3660046129dc565b610b39565b34801561034f57600080fd5b506102b7620d2f0081565b34801561036657600080fd5b5060075474010000000000000000000000000000000000000000900460ff166101e7565b34801561039657600080fd5b5061023e6103a5366004612871565b610f80565b3480156103b657600080fd5b506102b76103c5366004612a3e565b611032565b3480156103d657600080fd5b506101c5611100565b3480156103eb57600080fd5b506102b766b1a2bc2ec5000081565b34801561040657600080fd5b506102b767016345785d8a000081565b34801561042257600080fd5b5060075473ffffffffffffffffffffffffffffffffffffffff1661023e565b34801561044d57600080fd5b5061021161118b565b34801561046257600080fd5b506101c5610471366004612a59565b61119a565b34801561048257600080fd5b506101c5610491366004612a95565b6111a9565b3480156104a257600080fd5b506102116104b1366004612871565b611251565b3480156104c257600080fd5b50600a546102b79081565b3480156104d957600080fd5b506102b760095481565b3480156104ef57600080fd5b506101e76104fe366004612b11565b73ffffffffffffffffffffffffffffffffffffffff918216600090815260056020908152604080832093909416825291909152205460ff1690565b34801561054557600080fd5b506101c5610554366004612a3e565b611430565b60075473ffffffffffffffffffffffffffffffffffffffff1633146105df576040517f08c379a000000000000000000000000000000000000000000000000000000000815260206004820181905260248201527f4f776e61626c653a2063616c6c6572206973206e6f7420746865206f776e657260448201526064015b60405180910390fd5b60075474010000000000000000000000000000000000000000900460ff161561060c5761060a611560565b565b61060a611659565b60007fffffffff0000000000000000000000000000000000000000000000000000000082167f80ac58cd0000000000000000000000000000000000000000000000000000000014806106a757507fffffffff0000000000000000000000000000000000000000000000000000000082167f5b5e139f00000000000000000000000000000000000000000000000000000000145b806106f357507f01ffc9a7000000000000000000000000000000000000000000000000000000007fffffffff000000000000000000000000000000000000000000000000000000008316145b92915050565b60606000805461070890612b44565b80601f016020809104026020016040519081016040528092919081815260200182805461073490612b44565b80156107815780601f1061075657610100808354040283529160200191610781565b820191906000526020600020905b81548152906001019060200180831161076457829003601f168201915b5050505050905090565b60008181526002602052604081205473ffffffffffffffffffffffffffffffffffffffff1661083c576040517f08c379a000000000000000000000000000000000000000000000000000000000815260206004820152602c60248201527f4552433732313a20617070726f76656420717565727920666f72206e6f6e657860448201527f697374656e7420746f6b656e000000000000000000000000000000000000000060648201526084016105d6565b5060009081526004602052604090205473ffffffffffffffffffffffffffffffffffffffff1690565b600061087082610f80565b90508073ffffffffffffffffffffffffffffffffffffffff168373ffffffffffffffffffffffffffffffffffffffff16141561092e576040517f08c379a000000000000000000000000000000000000000000000000000000000815260206004820152602160248201527f4552433732313a20617070726f76616c20746f2063757272656e74206f776e6560448201527f720000000000000000000000000000000000000000000000000000000000000060648201526084016105d6565b3373ffffffffffffffffffffffffffffffffffffffff82161480610957575061095781336104fe565b6109e3576040517f08c379a000000000000000000000000000000000000000000000000000000000815260206004820152603860248201527f4552433732313a20617070726f76652063616c6c6572206973206e6f74206f7760448201527f6e6572206e6f7220617070726f76656420666f7220616c6c000000000000000060648201526084016105d6565b6109ed8383611745565b505050565b6109fc33826117e5565b610a88576040517f08c379a000000000000000000000000000000000000000000000000000000000815260206004820152603160248201527f4552433732313a207472616e736665722063616c6c6572206973206e6f74206f60448201527f776e6572206e6f7220617070726f76656400000000000000000000000000000060648201526084016105d6565b6109ed838383611951565b60075473ffffffffffffffffffffffffffffffffffffffff163314610b14576040517f08c379a000000000000000000000000000000000000000000000000000000000815260206004820181905260248201527f4f776e61626c653a2063616c6c6572206973206e6f7420746865206f776e657260448201526064016105d6565b61060a3347611bc3565b6109ed838383604051806020016040528060008152506111a9565b60075474010000000000000000000000000000000000000000900460ff1615610bbe576040517f08c379a000000000000000000000000000000000000000000000000000000000815260206004820152601060248201527f5061757361626c653a207061757365640000000000000000000000000000000060448201526064016105d6565b6008546002610bcc600a5490565b610bd69190612bf6565b10610c3d576040517f08c379a000000000000000000000000000000000000000000000000000000000815260206004820152601060248201527f6e6f206d6f72652073656372657473210000000000000000000000000000000060448201526064016105d6565b7f00000000000000000000000000000000000000000000000000000000000000006002610c69600a5490565b610c739190612bf6565b610c7e906001612c0a565b1115610d8157620d2f00600954610c959190612c0a565b4211610d105766b1a2bc2ec500003414610d0b576040517f08c379a000000000000000000000000000000000000000000000000000000000815260206004820152601960248201527f53656e6420657861637420646973636f756e742070726963650000000000000060448201526064016105d6565b610de9565b67016345785d8a00003414610d0b576040517f08c379a000000000000000000000000000000000000000000000000000000000815260206004820152601760248201527f53656e642065786163742073656372657420707269636500000000000000000060448201526064016105d6565b3415610de9576040517f08c379a000000000000000000000000000000000000000000000000000000000815260206004820152600d60248201527f41726520796f7520726963683f0000000000000000000000000000000000000060448201526064016105d6565b73ffffffffffffffffffffffffffffffffffffffff8216610e66576040517f08c379a000000000000000000000000000000000000000000000000000000000815260206004820152601160248201527f446f6e2774206665656c206c6f6e656c7900000000000000000000000000000060448201526064016105d6565b610e74600a80546001019055565b610e8682610e81600a5490565b611d1d565b610e98610e92600a5490565b82611eeb565b610ea6600a80546001019055565b610eb333610e81600a5490565b610ebf610e92600a5490565b6002610eca600a5490565b610ed49190612bf6565b7f000000000000000000000000000000000000000000000000000000000000000011158015610f035750600954155b15610f0d57426009555b73ffffffffffffffffffffffffffffffffffffffff8216337ffb2596ab441dc615f7623372f8afd48b3fca4f308e99f8747e53bfbd59f7a455610f4f600a5490565b6001610f5a600a5490565b610f649190612c22565b6040805192835260208301919091520160405180910390a35050565b60008181526002602052604081205473ffffffffffffffffffffffffffffffffffffffff16806106f3576040517f08c379a000000000000000000000000000000000000000000000000000000000815260206004820152602960248201527f4552433732313a206f776e657220717565727920666f72206e6f6e657869737460448201527f656e7420746f6b656e000000000000000000000000000000000000000000000060648201526084016105d6565b600073ffffffffffffffffffffffffffffffffffffffff82166110d7576040517f08c379a000000000000000000000000000000000000000000000000000000000815260206004820152602a60248201527f4552433732313a2062616c616e636520717565727920666f7220746865207a6560448201527f726f20616464726573730000000000000000000000000000000000000000000060648201526084016105d6565b5073ffffffffffffffffffffffffffffffffffffffff1660009081526003602052604090205490565b60075473ffffffffffffffffffffffffffffffffffffffff163314611181576040517f08c379a000000000000000000000000000000000000000000000000000000000815260206004820181905260248201527f4f776e61626c653a2063616c6c6572206973206e6f7420746865206f776e657260448201526064016105d6565b61060a6000611fbb565b60606001805461070890612b44565b6111a5338383612032565b5050565b6111b333836117e5565b61123f576040517f08c379a000000000000000000000000000000000000000000000000000000000815260206004820152603160248201527f4552433732313a207472616e736665722063616c6c6572206973206e6f74206f60448201527f776e6572206e6f7220617070726f76656400000000000000000000000000000060648201526084016105d6565b61124b84848484612160565b50505050565b60008181526002602052604090205460609073ffffffffffffffffffffffffffffffffffffffff16611305576040517f08c379a000000000000000000000000000000000000000000000000000000000815260206004820152603160248201527f45524337323155524953746f726167653a2055524920717565727920666f722060448201527f6e6f6e6578697374656e7420746f6b656e00000000000000000000000000000060648201526084016105d6565b6000828152600660205260408120805461131e90612b44565b80601f016020809104026020016040519081016040528092919081815260200182805461134a90612b44565b80156113975780601f1061136c57610100808354040283529160200191611397565b820191906000526020600020905b81548152906001019060200180831161137a57829003601f168201915b5050505050905060006113da60408051808201909152600781527f697066733a2f2f00000000000000000000000000000000000000000000000000602082015290565b90508051600014156113ed575092915050565b81511561141f578082604051602001611407929190612c39565b60405160208183030381529060405292505050919050565b61142884612203565b949350505050565b60075473ffffffffffffffffffffffffffffffffffffffff1633146114b1576040517f08c379a000000000000000000000000000000000000000000000000000000000815260206004820181905260248201527f4f776e61626c653a2063616c6c6572206973206e6f7420746865206f776e657260448201526064016105d6565b73ffffffffffffffffffffffffffffffffffffffff8116611554576040517f08c379a000000000000000000000000000000000000000000000000000000000815260206004820152602660248201527f4f776e61626c653a206e6577206f776e657220697320746865207a65726f206160448201527f646472657373000000000000000000000000000000000000000000000000000060648201526084016105d6565b61155d81611fbb565b50565b60075474010000000000000000000000000000000000000000900460ff166115e4576040517f08c379a000000000000000000000000000000000000000000000000000000000815260206004820152601460248201527f5061757361626c653a206e6f742070617573656400000000000000000000000060448201526064016105d6565b600780547fffffffffffffffffffffff00ffffffffffffffffffffffffffffffffffffffff1690557f5db9ee0a495bf2e6ff9c91a7834c1ba4fdd244a5e8aa4e537bd38aeae4b073aa335b60405173ffffffffffffffffffffffffffffffffffffffff909116815260200160405180910390a1565b60075474010000000000000000000000000000000000000000900460ff16156116de576040517f08c379a000000000000000000000000000000000000000000000000000000000815260206004820152601060248201527f5061757361626c653a207061757365640000000000000000000000000000000060448201526064016105d6565b600780547fffffffffffffffffffffff00ffffffffffffffffffffffffffffffffffffffff16740100000000000000000000000000000000000000001790557f62e78cea01bee320cd4e420270b5ea74000d11b0c9f74754ebdbfc544b05a25861162f3390565b600081815260046020526040902080547fffffffffffffffffffffffff00000000000000000000000000000000000000001673ffffffffffffffffffffffffffffffffffffffff8416908117909155819061179f82610f80565b73ffffffffffffffffffffffffffffffffffffffff167f8c5be1e5ebec7d5bd14f71427d1e84f3dd0314c0f7b2291e5b200ac8c7c3b92560405160405180910390a45050565b60008181526002602052604081205473ffffffffffffffffffffffffffffffffffffffff16611896576040517f08c379a000000000000000000000000000000000000000000000000000000000815260206004820152602c60248201527f4552433732313a206f70657261746f7220717565727920666f72206e6f6e657860448201527f697374656e7420746f6b656e000000000000000000000000000000000000000060648201526084016105d6565b60006118a183610f80565b90508073ffffffffffffffffffffffffffffffffffffffff168473ffffffffffffffffffffffffffffffffffffffff16148061191057508373ffffffffffffffffffffffffffffffffffffffff166118f88461078b565b73ffffffffffffffffffffffffffffffffffffffff16145b80611428575073ffffffffffffffffffffffffffffffffffffffff80821660009081526005602090815260408083209388168352929052205460ff16611428565b8273ffffffffffffffffffffffffffffffffffffffff1661197182610f80565b73ffffffffffffffffffffffffffffffffffffffff1614611a14576040517f08c379a000000000000000000000000000000000000000000000000000000000815260206004820152602560248201527f4552433732313a207472616e736665722066726f6d20696e636f72726563742060448201527f6f776e657200000000000000000000000000000000000000000000000000000060648201526084016105d6565b73ffffffffffffffffffffffffffffffffffffffff8216611ab6576040517f08c379a0000000000000000000000000000000000000000000000000000000008152602060048201526024808201527f4552433732313a207472616e7366657220746f20746865207a65726f2061646460448201527f726573730000000000000000000000000000000000000000000000000000000060648201526084016105d6565b611ac1838383612345565b611acc600082611745565b73ffffffffffffffffffffffffffffffffffffffff83166000908152600360205260408120805460019290611b02908490612c22565b909155505073ffffffffffffffffffffffffffffffffffffffff82166000908152600360205260408120805460019290611b3d908490612c0a565b909155505060008181526002602052604080822080547fffffffffffffffffffffffff00000000000000000000000000000000000000001673ffffffffffffffffffffffffffffffffffffffff86811691821790925591518493918716917fddf252ad1be2c89b69c2b068fc378daa952ba7f163c4a11628f55a4df523b3ef91a4505050565b80471015611c2d576040517f08c379a000000000000000000000000000000000000000000000000000000000815260206004820152601d60248201527f416464726573733a20696e73756666696369656e742062616c616e636500000060448201526064016105d6565b60008273ffffffffffffffffffffffffffffffffffffffff168260405160006040518083038185875af1925050503d8060008114611c87576040519150601f19603f3d011682016040523d82523d6000602084013e611c8c565b606091505b50509050806109ed576040517f08c379a000000000000000000000000000000000000000000000000000000000815260206004820152603a60248201527f416464726573733a20756e61626c6520746f2073656e642076616c75652c207260448201527f6563697069656e74206d6179206861766520726576657274656400000000000060648201526084016105d6565b73ffffffffffffffffffffffffffffffffffffffff8216611d9a576040517f08c379a000000000000000000000000000000000000000000000000000000000815260206004820181905260248201527f4552433732313a206d696e7420746f20746865207a65726f206164647265737360448201526064016105d6565b60008181526002602052604090205473ffffffffffffffffffffffffffffffffffffffff1615611e26576040517f08c379a000000000000000000000000000000000000000000000000000000000815260206004820152601c60248201527f4552433732313a20746f6b656e20616c7265616479206d696e7465640000000060448201526064016105d6565b611e3260008383612345565b73ffffffffffffffffffffffffffffffffffffffff82166000908152600360205260408120805460019290611e68908490612c0a565b909155505060008181526002602052604080822080547fffffffffffffffffffffffff00000000000000000000000000000000000000001673ffffffffffffffffffffffffffffffffffffffff861690811790915590518392907fddf252ad1be2c89b69c2b068fc378daa952ba7f163c4a11628f55a4df523b3ef908290a45050565b60008281526002602052604090205473ffffffffffffffffffffffffffffffffffffffff16611f9c576040517f08c379a000000000000000000000000000000000000000000000000000000000815260206004820152602e60248201527f45524337323155524953746f726167653a2055524920736574206f66206e6f6e60448201527f6578697374656e7420746f6b656e00000000000000000000000000000000000060648201526084016105d6565b600082815260066020908152604090912082516109ed92840190612704565b6007805473ffffffffffffffffffffffffffffffffffffffff8381167fffffffffffffffffffffffff0000000000000000000000000000000000000000831681179093556040519116919082907f8be0079c531659141344cd1fd0a4f28419497f9722a3daafe3b4186f6b6457e090600090a35050565b8173ffffffffffffffffffffffffffffffffffffffff168373ffffffffffffffffffffffffffffffffffffffff1614156120c8576040517f08c379a000000000000000000000000000000000000000000000000000000000815260206004820152601960248201527f4552433732313a20617070726f766520746f2063616c6c65720000000000000060448201526064016105d6565b73ffffffffffffffffffffffffffffffffffffffff83811660008181526005602090815260408083209487168084529482529182902080547fffffffffffffffffffffffffffffffffffffffffffffffffffffffffffffff001686151590811790915591519182527f17307eab39ab6107e8899845ad3d59bd9653f200f220920489ca2b5937696c31910160405180910390a3505050565b61216b848484611951565b612177848484846123e2565b61124b576040517f08c379a000000000000000000000000000000000000000000000000000000000815260206004820152603260248201527f4552433732313a207472616e7366657220746f206e6f6e20455243373231526560448201527f63656976657220696d706c656d656e746572000000000000000000000000000060648201526084016105d6565b60008181526002602052604090205460609073ffffffffffffffffffffffffffffffffffffffff166122b7576040517f08c379a000000000000000000000000000000000000000000000000000000000815260206004820152602f60248201527f4552433732314d657461646174613a2055524920717565727920666f72206e6f60448201527f6e6578697374656e7420746f6b656e000000000000000000000000000000000060648201526084016105d6565b60006122f360408051808201909152600781527f697066733a2f2f00000000000000000000000000000000000000000000000000602082015290565b90506000815111612313576040518060200160405280600081525061233e565b8061231d846125d2565b60405160200161232e929190612c39565b6040516020818303038152906040525b9392505050565b73ffffffffffffffffffffffffffffffffffffffff8316158061237c575073ffffffffffffffffffffffffffffffffffffffff8216155b6109ed576040517f08c379a000000000000000000000000000000000000000000000000000000000815260206004820152601e60248201527f50617373696e67207365637265747320697320626164206d616e6e657273000060448201526064016105d6565b600073ffffffffffffffffffffffffffffffffffffffff84163b156125c7576040517f150b7a0200000000000000000000000000000000000000000000000000000000815273ffffffffffffffffffffffffffffffffffffffff85169063150b7a0290612459903390899088908890600401612c68565b6020604051808303816000875af19250505080156124b2575060408051601f3d9081017fffffffffffffffffffffffffffffffffffffffffffffffffffffffffffffffe01682019092526124af91810190612cb1565b60015b61257c573d8080156124e0576040519150601f19603f3d011682016040523d82523d6000602084013e6124e5565b606091505b508051612574576040517f08c379a000000000000000000000000000000000000000000000000000000000815260206004820152603260248201527f4552433732313a207472616e7366657220746f206e6f6e20455243373231526560448201527f63656976657220696d706c656d656e746572000000000000000000000000000060648201526084016105d6565b805181602001fd5b7fffffffff00000000000000000000000000000000000000000000000000000000167f150b7a0200000000000000000000000000000000000000000000000000000000149050611428565b506001949350505050565b60608161261257505060408051808201909152600181527f3000000000000000000000000000000000000000000000000000000000000000602082015290565b8160005b811561263c578061262681612cce565b91506126359050600a83612bf6565b9150612616565b60008167ffffffffffffffff81111561265757612657612919565b6040519080825280601f01601f191660200182016040528015612681576020820181803683370190505b5090505b841561142857612696600183612c22565b91506126a3600a86612d07565b6126ae906030612c0a565b60f81b8183815181106126c3576126c3612d1b565b60200101907effffffffffffffffffffffffffffffffffffffffffffffffffffffffffffff1916908160001a9053506126fd600a86612bf6565b9450612685565b82805461271090612b44565b90600052602060002090601f0160209004810192826127325760008555612778565b82601f1061274b57805160ff1916838001178555612778565b82800160010185558215612778579182015b8281111561277857825182559160200191906001019061275d565b50612784929150612788565b5090565b5b808211156127845760008155600101612789565b7fffffffff000000000000000000000000000000000000000000000000000000008116811461155d57600080fd5b6000602082840312156127dd57600080fd5b813561233e8161279d565b60005b838110156128035781810151838201526020016127eb565b8381111561124b5750506000910152565b6000815180845261282c8160208601602086016127e8565b601f017fffffffffffffffffffffffffffffffffffffffffffffffffffffffffffffffe0169290920160200192915050565b60208152600061233e6020830184612814565b60006020828403121561288357600080fd5b5035919050565b803573ffffffffffffffffffffffffffffffffffffffff811681146128ae57600080fd5b919050565b600080604083850312156128c657600080fd5b6128cf8361288a565b946020939093013593505050565b6000806000606084860312156128f257600080fd5b6128fb8461288a565b92506129096020850161288a565b9150604084013590509250925092565b7f4e487b7100000000000000000000000000000000000000000000000000000000600052604160045260246000fd5b600067ffffffffffffffff8084111561296357612963612919565b604051601f85017fffffffffffffffffffffffffffffffffffffffffffffffffffffffffffffffe0908116603f011681019082821181831017156129a9576129a9612919565b816040528093508581528686860111156129c257600080fd5b858560208301376000602087830101525050509392505050565b600080604083850312156129ef57600080fd5b6129f88361288a565b9150602083013567ffffffffffffffff811115612a1457600080fd5b8301601f81018513612a2557600080fd5b612a3485823560208401612948565b9150509250929050565b600060208284031215612a5057600080fd5b61233e8261288a565b60008060408385031215612a6c57600080fd5b612a758361288a565b915060208301358015158114612a8a57600080fd5b809150509250929050565b60008060008060808587031215612aab57600080fd5b612ab48561288a565b9350612ac26020860161288a565b925060408501359150606085013567ffffffffffffffff811115612ae557600080fd5b8501601f81018713612af657600080fd5b612b0587823560208401612948565b91505092959194509250565b60008060408385031215612b2457600080fd5b612b2d8361288a565b9150612b3b6020840161288a565b90509250929050565b600181811c90821680612b5857607f821691505b60208210811415612b92577f4e487b7100000000000000000000000000000000000000000000000000000000600052602260045260246000fd5b50919050565b7f4e487b7100000000000000000000000000000000000000000000000000000000600052601260045260246000fd5b7f4e487b7100000000000000000000000000000000000000000000000000000000600052601160045260246000fd5b600082612c0557612c05612b98565b500490565b60008219821115612c1d57612c1d612bc7565b500190565b600082821015612c3457612c34612bc7565b500390565b60008351612c4b8184602088016127e8565b835190830190612c5f8183602088016127e8565b01949350505050565b600073ffffffffffffffffffffffffffffffffffffffff808716835280861660208401525083604083015260806060830152612ca76080830184612814565b9695505050505050565b600060208284031215612cc357600080fd5b815161233e8161279d565b60007fffffffffffffffffffffffffffffffffffffffffffffffffffffffffffffffff821415612d0057612d00612bc7565b5060010190565b600082612d1657612d16612b98565b500690565b7f4e487b7100000000000000000000000000000000000000000000000000000000600052603260045260246000fdfea26469706673582212202f2a94839d1ac0c2fd7ea4d20a465f6bff610a5cdc17ffba58f62db7d1a33f1b64736f6c634300080b0033",
  "devdoc": {
    "kind": "dev",
    "methods": {
      "approve(address,uint256)": {
        "details": "See {IERC721-approve}."
      },
      "balanceOf(address)": {
        "details": "See {IERC721-balanceOf}."
      },
      "getApproved(uint256)": {
        "details": "See {IERC721-getApproved}."
      },
      "isApprovedForAll(address,address)": {
        "details": "See {IERC721-isApprovedForAll}."
      },
      "name()": {
        "details": "See {IERC721Metadata-name}."
      },
      "owner()": {
        "details": "Returns the address of the current owner."
      },
      "ownerOf(uint256)": {
        "details": "See {IERC721-ownerOf}."
      },
      "paused()": {
        "details": "Returns true if the contract is paused, and false otherwise."
      },
      "renounceOwnership()": {
        "details": "Leaves the contract without owner. It will not be possible to call `onlyOwner` functions anymore. Can only be called by the current owner. NOTE: Renouncing ownership will leave the contract without an owner, thereby removing any functionality that is only available to the owner."
      },
      "safeTransferFrom(address,address,uint256)": {
        "details": "See {IERC721-safeTransferFrom}."
      },
      "safeTransferFrom(address,address,uint256,bytes)": {
        "details": "See {IERC721-safeTransferFrom}."
      },
      "setApprovalForAll(address,bool)": {
        "details": "See {IERC721-setApprovalForAll}."
      },
      "supportsInterface(bytes4)": {
        "details": "See {IERC165-supportsInterface}."
      },
      "symbol()": {
        "details": "See {IERC721Metadata-symbol}."
      },
      "tokenURI(uint256)": {
        "details": "See {IERC721Metadata-tokenURI}."
      },
      "transferFrom(address,address,uint256)": {
        "details": "See {IERC721-transferFrom}."
      },
      "transferOwnership(address)": {
        "details": "Transfers ownership of the contract to a new account (`newOwner`). Can only be called by the current owner."
      }
    },
    "version": 1
  },
  "userdoc": {
    "kind": "user",
    "methods": {},
    "version": 1
  },
  "storageLayout": {
    "storage": [
      {
        "astId": 222,
        "contract": "contracts/SecretSomeone.sol:SecretSomeone",
        "label": "_name",
        "offset": 0,
        "slot": "0",
        "type": "t_string_storage"
      },
      {
        "astId": 224,
        "contract": "contracts/SecretSomeone.sol:SecretSomeone",
        "label": "_symbol",
        "offset": 0,
        "slot": "1",
        "type": "t_string_storage"
      },
      {
        "astId": 228,
        "contract": "contracts/SecretSomeone.sol:SecretSomeone",
        "label": "_owners",
        "offset": 0,
        "slot": "2",
        "type": "t_mapping(t_uint256,t_address)"
      },
      {
        "astId": 232,
        "contract": "contracts/SecretSomeone.sol:SecretSomeone",
        "label": "_balances",
        "offset": 0,
        "slot": "3",
        "type": "t_mapping(t_address,t_uint256)"
      },
      {
        "astId": 236,
        "contract": "contracts/SecretSomeone.sol:SecretSomeone",
        "label": "_tokenApprovals",
        "offset": 0,
        "slot": "4",
        "type": "t_mapping(t_uint256,t_address)"
      },
      {
        "astId": 242,
        "contract": "contracts/SecretSomeone.sol:SecretSomeone",
        "label": "_operatorApprovals",
        "offset": 0,
        "slot": "5",
        "type": "t_mapping(t_address,t_mapping(t_address,t_bool))"
      },
      {
        "astId": 1209,
        "contract": "contracts/SecretSomeone.sol:SecretSomeone",
        "label": "_tokenURIs",
        "offset": 0,
        "slot": "6",
        "type": "t_mapping(t_uint256,t_string_storage)"
      },
      {
        "astId": 7,
        "contract": "contracts/SecretSomeone.sol:SecretSomeone",
        "label": "_owner",
        "offset": 0,
        "slot": "7",
        "type": "t_address"
      },
      {
        "astId": 122,
        "contract": "contracts/SecretSomeone.sol:SecretSomeone",
        "label": "_paused",
        "offset": 20,
        "slot": "7",
        "type": "t_bool"
      },
      {
        "astId": 2011,
        "contract": "contracts/SecretSomeone.sol:SecretSomeone",
        "label": "cap",
        "offset": 0,
        "slot": "8",
        "type": "t_uint256"
      },
      {
        "astId": 2013,
        "contract": "contracts/SecretSomeone.sol:SecretSomeone",
        "label": "complimentaryPeriodEndedOn",
        "offset": 0,
        "slot": "9",
        "type": "t_uint256"
      },
      {
        "astId": 2016,
        "contract": "contracts/SecretSomeone.sol:SecretSomeone",
        "label": "secrets",
        "offset": 0,
        "slot": "10",
        "type": "t_struct(Counter)1674_storage"
      }
    ],
    "types": {
      "t_address": {
        "encoding": "inplace",
        "label": "address",
        "numberOfBytes": "20"
      },
      "t_bool": {
        "encoding": "inplace",
        "label": "bool",
        "numberOfBytes": "1"
      },
      "t_mapping(t_address,t_bool)": {
        "encoding": "mapping",
        "key": "t_address",
        "label": "mapping(address => bool)",
        "numberOfBytes": "32",
        "value": "t_bool"
      },
      "t_mapping(t_address,t_mapping(t_address,t_bool))": {
        "encoding": "mapping",
        "key": "t_address",
        "label": "mapping(address => mapping(address => bool))",
        "numberOfBytes": "32",
        "value": "t_mapping(t_address,t_bool)"
      },
      "t_mapping(t_address,t_uint256)": {
        "encoding": "mapping",
        "key": "t_address",
        "label": "mapping(address => uint256)",
        "numberOfBytes": "32",
        "value": "t_uint256"
      },
      "t_mapping(t_uint256,t_address)": {
        "encoding": "mapping",
        "key": "t_uint256",
        "label": "mapping(uint256 => address)",
        "numberOfBytes": "32",
        "value": "t_address"
      },
      "t_mapping(t_uint256,t_string_storage)": {
        "encoding": "mapping",
        "key": "t_uint256",
        "label": "mapping(uint256 => string)",
        "numberOfBytes": "32",
        "value": "t_string_storage"
      },
      "t_string_storage": {
        "encoding": "bytes",
        "label": "string",
        "numberOfBytes": "32"
      },
      "t_struct(Counter)1674_storage": {
        "encoding": "inplace",
        "label": "struct Counters.Counter",
        "members": [
          {
            "astId": 1673,
            "contract": "contracts/SecretSomeone.sol:SecretSomeone",
            "label": "_value",
            "offset": 0,
            "slot": "0",
            "type": "t_uint256"
          }
        ],
        "numberOfBytes": "32"
      },
      "t_uint256": {
        "encoding": "inplace",
        "label": "uint256",
        "numberOfBytes": "32"
      }
    }
  }
}